S0130000416C61726D5F417564696F2E73726563D3
S11300000C9434000C949E070C94C2070C94510079
S11300100C9451000C9451000C9451000C94510018
S11300200C9451000C9451000C9451000C94510008
S11300300C9451000C9451000C9451000C945100F8
S11300400C9451000C9451000C9451000C945100E8
S11300500C9451000C9451000C9451000C945100D8
S11300600C9451000C94510011241FBECFEFD8E022
S1130070DEBFCDBF14E0A0E0B1E0E8E2F5E102C0EC
S113008005900D92AE32B107D9F724E0AEE2B4E0A8
S113009001C01D92A233B207E1F70E94EF080C944D
S11300A0920A0C940000FC0184E6689FA0011124CC
S11300B09F0136952795ABE7B4E10E94830ABC0102
S11300C076956795CA010E945B0A27C7E23793E1D8
S11300D0F90771F48BB182608BB982E58A95F1F7E7
S11300E000C08BB18D7F8BB992E59A95F1F700C072
S11300F0EB3582E1F80761F48BB182608BB998E546
S11301009A95F1F78BB18D7F8BB988E58A95F1F7D4
S1130110E33591E1F90771F48BB182608BB98DE518
S11301208A95F1F700008BB18D7F8BB99DE59A9587
S1130130F1F70000EA3580E1F80771F48BB18260D1
S11301408BB992E69A95F1F700C08BB18D7F8BB98C
S113015082E68A95F1F700C0EF369FE0F90761F473
S11301608BB182608BB988E68A95F1F78BB18D7F6C
S11301708BB998E69A95F1F7E1398EE0F80771F4B6
S11301808BB182608BB99DE69A95F1F700008BB133
S11301908D7F8BB98DE68A95F1F70000E03C9DE0F8
S11301A0F90771F48BB182608BB985E78A95F1F711
S11301B000008BB18D7F8BB995E79A95F1F700001C
S11301C0EA3F8CE0F80771F48BB182608BB99AE74F
S11301D09A95F1F700C08BB18D7F8BB98AE78A9528
S11301E0F1F700C0E0349CE0F90771F48BB1826050
S11301F08BB982E88A95F1F700C08BB18D7F8BB9FA
S113020092E89A95F1F700C0E0398BE0F80771F4B1
S11302108BB182608BB99AE89A95F1F700C08BB1E3
S11302208D7F8BB98AE88A95F1F700C0EA3E9AE09F
S1130230F90771F48BB182608BB982E98A95F1F781
S113024000C08BB18D7F8BB992E99A95F1F700C00C
S1130250ED348AE0F80771F48BB182608BB99AE9C6
S11302609A95F1F700C08BB18D7F8BB98AE98A9595
S1130270F1F700C0E93B99E0F90771F48BB18260B2
S11302808BB985EA8A95F1F700008BB18D7F8BB924
S113029095EA9A95F1F70000ED3289E0F80771F4D8
S11302A08BB182608BB99DEA9A95F1F700008BB10E
S11302B08D7F8BB98DEA8A95F1F70000E93A98E0D1
S11302C0F90761F48BB182608BB988EB8A95F1F7F9
S11302D08BB18D7F8BB998EB9A95F1F7ED3288E06D
S11302E0F80771F48BB182608BB992EC9A95F1F7AF
S11302F000C08BB18D7F8BB982EC8A95F1F700C079
S1130300E83B97E0F90761F48BB182608BB980ED2B
S11303108A95F1F78BB18D7F8BB990ED9A95F1F7B2
S1130320E93487E0F80771F48BB182608BB99AEDF8
S11303309A95F1F700C08BB18D7F8BB98AED8A95C0
S1130340F1F700C0E03E96E0F90761F48BB18260FA
S11303508BB988EE8A95F1F78BB18D7F8BB998EEC6
S11303609A95F1F7ED3786E0F80761F48BB1826076
S11303708BB998EF9A95F1F78BB18D7F8BB988EF94
S11303808A95F1F7E03296E0F90791F48BB1826037
S11303908BB983EC90E00197F1F700C000008BB1BA
S11303A08D7F8BB983EC90E00197F1F700C00000DA
S11303B0E83C95E0F90791F48BB182608BB98FEC3E
S11303C090E00197F1F700C000008BB18D7F8BB9ED
S11303D08FEC90E00197F1F700C00000E53795E05D
S11303E0F90791F48BB182608BB98BED90E00197A2
S11303F0F1F700C000008BB18D7F8BB98BED90E0DD
S11304000197F1F700C00000E73295E0F90791F495
S11304108BB182608BB989EE90E00197F1F700C04F
S113042000008BB18D7F8BB989EE90E00197F1F7D5
S113043000C00000ED3D94E0F90791F48BB18260B7
S11304408BB985EF90E00197F1F700C000008BB104
S11304508D7F8BB985EF90E00197F1F700C0000024
S1130460E73994E0F90791F48BB182608BB985E0A8
S113047091E00197F1F700C000008BB18D7F8BB93B
S113048085E091E00197F1F700C00000E53594E0C4
S1130490F90791F48BB182608BB985E191E0019702
S11304A0F1F700C000008BB18D7F8BB985E191E03D
S11304B00197F1F700C00000E73194E0F90791F4E7
S11304C08BB182608BB985E291E00197F1F700C0AE
S11304D000008BB18D7F8BB985E291E00197F1F734
S11304E000C00000EC3D93E0F90791F48BB1826009
S11304F08BB987E391E00197F1F700C000008BB15D
S11305008D7F8BB987E391E00197F1F700C000007C
S1130510E43A93E0F90791F48BB182608BB989E4F2
S113052091E00197F1F700C000008BB18D7F8BB98A
S113053089E491E00197F1F700C00000E03793E00F
S1130540F90791F48BB182608BB98DE591E0019745
S1130550F1F700C000008BB18D7F8BB98DE591E080
S11305600197F1F700C00000EF3393E0F90791F42D
S11305708BB182608BB981E791E00197F1F700C0FC
S113058000008BB18D7F8BB981E791E00197F1F782
S113059000C00000E03193E0F90791F48BB1826070
S11305A08BB987E891E00197F1F700C000008BB1A7
S11305B08D7F8BB987E891E00197F1F700C00000C7
S11305C0E43E92E0F90791F48BB182608BB98FE934
S11305D091E00197F1F700C000008BB18D7F8BB9DA
S11305E08FE991E00197F1F700C00000EA3B92E047
S11305F0F90791F48BB182608BB987EB91E0019795
S1130600F1F700C000008BB18D7F8BB987EB91E0CF
S11306100197F1F700C00000E33992E0F90791F483
S11306208BB182608BB981ED91E00197F1F700C045
S113063000008BB18D7F8BB981ED91E00197F1F7CB
S113064000C00000EE3692E0F90791F48BB18260AD
S11306508BB98DEE91E00197F1F700C000008BB1EA
S11306608D7F8BB98DEE91E00197F1F700C000000A
S1130670EB3492E0F90791F48BB182608BB98BE093
S113068092E00197F1F700C000008BB18D7F8BB928
S11306908BE092E00197F1F700C00000EA3292E0AB
S11306A0F90791F48BB182608BB989E292E00197EA
S11306B0F1F700C000008BB18D7F8BB989E292E025
S11306C00197F1F700C00000EB3092E0F90791F4D4
S11306D08BB182608BB98BE492E00197F1F700C093
S11306E000008BB18D7F8BB98BE492E00197F1F719
S11306F000C00000EE3E91E0F90791F48BB18260F6
S11307008BB98DE692E00197F1F700C000008BB140
S11307108D7F8BB98DE692E00197F1F700C0000060
S1130720E23D91E0F90791F48BB182608BB983E9E2
S113073092E00197F1F700C000008BB18D7F8BB977
S113074083E992E00197F1F700C00000E83B91E0F3
S1130750F90791F48BB182608BB989EB92E0019730
S1130760F1F700C000008BB18D7F8BB989EB92E06B
S11307700197F1F700C00000EF3991E0F90791F417
S11307808BB182608BB983EE92E00197F1F700C0E0
S113079000008BB18D7F8BB983EE92E00197F1F766
S11307A000C00000E83891E0F90791F48BB1826051
S11307B08BB98FE093E00197F1F700C000008BB193
S11307C08D7F8BB98FE093E00197F1F700C00000B3
S11307D0E23791E0F90791F48BB182608BB98DE334
S11307E093E00197F1F700C000008BB18D7F8BB9C6
S11307F08DE393E00197F1F700C00000ED3591E03F
S1130800F90791F48BB182608BB98FE693E001977D
S1130810F1F700C000008BB18D7F8BB98FE693E0B8
S11308200197F1F700C00000EA3491E0F90791F470
S11308308BB182608BB983EA93E00197F1F700C032
S113084000008BB18D7F8BB983EA93E00197F1F7B8
S113085000C00000E73391E0F90791F48BB18260A6
S11308608BB98BED93E00197F1F700C000008BB1D9
S11308708D7F8BB98BED93E00197F1F700C00000F9
S1130880E63291E0F90791F48BB182608BB985E18E
S113089094E00197F1F700C000008BB18D7F8BB914
S11308A085E194E00197F1F700C00000E53191E0A3
S11308B0F90791F48BB182608BB983E594E00197D9
S11308C0F1F700C000008BB18D7F8BB983E594E014
S11308D00197F1F700C00000E63091E0F90791F4C8
S11308E08BB182608BB985E994E00197F1F700C080
S11308F000008BB18D7F8BB985E994E00197F1F706
S113090000C00000E73FF10591F48BB182608BB920
S11309108BED94E00197F1F700C000008BB18D7F5F
S11309208BB98BED94E00197F1F700C00000E93E2C
S1130930F10591F48BB182608BB985E295E0019762
S1130940F1F700C000008BB18D7F8BB985E295E093
S11309500197F1F700C00000EC3DF10591F48BB173
S113096082608BB983E795E00197F1F700C000003E
S11309708BB18D7F8BB983E795E00197F1F700C0C8
S11309800000E03DF10591F48BB182608BB987ECF6
S113099095E00197F1F700C000008BB18D7F8BB912
S11309A087EC95E00197F1F700C00000E43CF10505
S11309B091F48BB182608BB98FE196E00197F1F7E6
S11309C000C000008BB18D7F8BB98FE196E0019759
S11309D0F1F700C00000E93BF10591F48BB18260AE
S11309E08BB98DE796E00197F1F700C000008BB159
S11309F08D7F8BB98DE796E00197F1F700C0000079
S1130A00EF3AF10591F48BB182608BB98FED96E0EA
S1130A100197F1F700C000008BB18D7F8BB98FED8A
S1130A2096E00197F1F700C00000E53AF10591F472
S1130A308BB182608BB987E497E00197F1F700C02E
S1130A4000008BB18D7F8BB987E497E00197F1F7B4
S1130A5000C00000EC39F10591F48BB182608BB9D0
S1130A6087EB97E00197F1F700C000008BB18D7F11
S1130A708BB987EB97E00197F1F700C00000E339E9
S1130A80F10591F48BB182608BB98DE298E0019706
S1130A90F1F700C000008BB18D7F8BB98DE298E037
S1130AA00197F1F700C00000EB38F10591F48BB128
S1130AB082608BB989EA98E00197F1F700C00000E1
S1130AC08BB18D7F8BB989EA98E00197F1F700C06B
S1130AD00000E338F10591F48BB182608BB98DE2AB
S1130AE099E00197F1F700C000008BB18D7F8BB9BD
S1130AF08DE299E00197F1F700C00000EB37F105B2
S1130B0091F48BB182608BB989EB99E00197F1F78D
S1130B1000C000008BB18D7F8BB989EB99E0019700
S1130B20F1F700C00000E537F10591F48BB1826064
S1130B308BB98DE49AE00197F1F700C000008BB106
S1130B408D7F8BB98DE49AE00197F1F700C0000026
S1130B50EE36F10591F48BB182608BB989EE9AE09F
S1130B600197F1F700C000008BB18D7F8BB989EE3E
S1130B709AE00197F1F700C00000E836F10591F41E
S1130B808BB182608BB98FE89BE00197F1F700C0CD
S1130B9000008BB18D7F8BB98FE89BE00197F1F753
S1130BA000C00000E236F10591F48BB182608BB98C
S1130BB08FE39CE00197F1F700C000008BB18D7FBB
S1130BC08BB98FE39CE00197F1F700C00000ED358D
S1130BD0F10591F48BB182608BB989EF9CE00197A8
S1130BE0F1F700C000008BB18D7F8BB989EF9CE0D9
S1130BF00197F1F700C00000E735F10591F48BB1DE
S1130C0082608BB98FEB9DE00197F1F700C0000083
S1130C108BB18D7F8BB98FEB9DE00197F1F700C00D
S1130C200000E235F10591F48BB182608BB981E962
S1130C309EE00197F1F700C000008BB18D7F8BB966
S1130C4081E99EE00197F1F700C00000EE34F10560
S1130C5091F48BB182608BB98FE69FE00197F1F735
S1130C6000C000008BB18D7F8BB98FE69FE00197A8
S1130C70F1F700C00000E934F10591F48BB1826012
S1130C808BB989E590E10197F1F700C000008BB1C1
S1130C908D7F8BB989E590E10197F1F700C00000E1
S1130CA0E534F10591F48BB182608BB981E591E172
S1130CB00197F1F700C000008BB18D7F8BB981E5FE
S1130CC091E10197F1F700C00000E134F10591F4DE
S1130CD08BB182608BB989E592E10197F1F700C08D
S1130CE000008BB18D7F8BB989E592E10197F1F713
S1130CF000C00000EE33F10591F48BB182608BB932
S1130D0081E793E10197F1F700C000008BB18D7F7B
S1130D108BB981E793E10197F1F700C00000EA3352
S1130D20F10591F48BB182608BB989E994E1019763
S1130D30F1F700C000008BB18D7F8BB989E994E194
S1130D400197F1F700C00000E733F10591F48BB18E
S1130D5082608BB983ED95E10197F1F700C0000043
S1130D608BB18D7F8BB983ED95E10197F1F700C0CD
S1130D700000E433F10591F48BB182608BB98FE10B
S1130D8097E10197F1F700C000008BB18D7F8BB91B
S1130D908FE197E10197F1F700C00000E133F1051D
S1130DA091F48BB182608BB98FE798E10197F1F7E9
S1130DB000C000008BB18D7F8BB98FE798E101975C
S1130DC0F1F700C00000EE32F10591F48BB18260BE
S1130DD08BB983EF99E10197F1F700C000008BB163
S1130DE08D7F8BB983EF99E10197F1F700C0000083
S1130DF0EC32F10591F48BB182608BB98FE79BE102
S1130E000197F1F700C000008BB18D7F8BB98FE79C
S1130E109BE10197F1F700C00000E932F10591F47C
S1130E208BB182608BB981E29DE10197F1F700C03B
S1130E3000008BB18D7F8BB981E29DE10197F1F7C1
S1130E4000C00000E732F10591F48BB182608BB9E8
S1130E508DED9EE10197F1F700C000008BB18D7F0D
S1130E608BB98DED9EE10197F1F700C00000E532EA
S1130E70F10591F48BB182608BB983EB90E2019719
S1130E80F1F700C000008BB18D7F8BB983EB90E24A
S1130E900197F1F700C00000E332F10591F48BB142
S1130EA082608BB985EA92E20197F1F700C00000F5
S1130EB08BB18D7F8BB985EA92E20197F1F700C07F
S1130EC00000E132F10591F48BB182608BB985EBBE
S1130ED094E20197F1F700C000008BB18D7F8BB9CC
S1130EE085EB94E20197F1F700C00000EF31F105C2
S1130EF091F48BB182608BB983EE96E20197F1F79E
S1130F0000C000008BB18D7F8BB983EE96E2019710
S1130F10F1F700C00000615071096115710509F015
S1130F20D5C8089581E090E090932F0480932E0417
S1130F30089510922F0410922E0408951F920F9278
S1130F400FB60F9211242F933F934F935F936F9398
S1130F507F938F939F93AF93BF93EF93FF930E94DD
S1130F609207FF91EF91BF91AF919F918F917F91E4
S1130F706F915F914F913F912F910F900FBE0F9002
S1130F801F9018951F920F920FB60F9211242F9352
S1130F903F934F935F936F937F938F939F93AF93FD
S1130FA0BF93EF93FF930E949907FF91EF91BF9135
S1130FB0AF919F918F917F916F915F914F913F91ED
S1130FC02F910F900FBE0F901F90189580913004B1
S1130FD09091310420912C0430912D0482179307B1
S1130FE034F401969093310480933004089581E0A1
S1130FF090E09093310480933004089580913004FC
S1131000909131048230910534F00197909331042A
S113101080933004089580912C0490912D04909332
S1131020310480933004089507C08FEC97E0019752
S1131030F1F700C00000C9019C0121503109892B3E
S1131040A1F708950F931F93CF93DF93C0E0D0E0EF
S11310504FC080912E0490912F04892B19F480E0C5
S113106090E04AC0CE01880F991FFC01EA56FD4F5B
S113107020813181FC01E050FF4F00811181211555
S1131080310549F0C80162E370E00E946F0AC901AA
S11310900E94530016C0C8016AE070E00E946F0A03
S11310A0072E000C880B990B0E94CF0920E030E03A
S11310B040E05FE30E942A090E949709CB010E9445
S11310C01408C8016AE070E00E946F0A072E000C41
S11310D0880B990B0E94CF0920E030E040EB50E4EC
S11310E00E942A090E949709CB010E9414082196A4
S11310F0CB3CD1050CF4ADCFDF91CF911F910F9173
S113110008950F931F93CF93DF93C0E0D0E04FC0B7
S113111080912E0490912F04892B19F480E090E0A3
S11311204AC0CE01880F991FFC01EA56FD4F208169
S11311303181FC01E050FF4F0081118121153105FF
S113114049F0C80162E370E00E946F0AC9010E947D
S1131150530016C0C8016AE070E00E946F0A072EAF
S1131160000C880B990B0E94CF0920E030E040E08E
S11311705FE30E942A090E949709CB010E94140888
S1131180C8016AE070E00E946F0A072E000C880B09
S1131190990B0E94CF0920E030E040EB50E40E941C
S11311A02A090E949709CB010E9414082196CB3C7E
S11311B0D1050CF4ADCFDF91CF911F910F9108951C
S11311C080913004909131048130910519F40E948A
S11311D022080895029711F40E948108089580EB73
S11311E0809366008AB182608AB98BB18C6C8BB9AA
S11311F0E9E6F0E080818A6080838DB383608DBBF3
S1131200789481E090E0909331048093300480914D
S11312102E0490912F04019711F40E94E0084E9936
S11312200BC00E94E6072FEF81EE94E0215080402E
S11312309040E1F700C000004F99E9CF0E94FE07FB
S11312402FEF81EE94E0215080409040E1F700C000
S11312500000DDCF5058BB27AA270E9442090C94F6
S1131260210A0E94130A38F00E941A0A20F039F465
S11312709F3F19F426F40C94100A0EF4E095E7FB52
S11312800C940A0AE92F0E94320A58F3BA1762072B
S113129073078407950720F079F4A6F50C94540A93
S11312A00EF4E0950B2EBA2FA02D0B01B90190017D
S11312B00C01CA01A0011124FF27591B99F0593FC1
S11312C050F4503E68F11A16F040A22F232F342F09
S11312D04427585FF3CF469537952795A795F04057
S11312E05395C9F77EF41F16BA0B620B730B840B6C
S11312F0BAF09150A1F0FF0FBB1F661F771F881F24
S1131300C2F70EC0BA0F621F731F841F48F487957B
S113131077956795B795F7959E3F08F0B0CF93956D
S1131320880F08F09927EE0F9795879508950E94E6
S11313309E096894B1110C94550A08950E943A0AC2
S113134088F09F5798F0B92F9927B751B0F0E1F082
S1131350660F771F881F991F1AF0BA95C9F714C032
S1131360B13091F00E94540AB1E008950C94540AEB
S1131370672F782F8827B85F39F0B93FCCF386956B
S113138077956795B395D9F73EF4909580957095C8
S113139061957F4F8F4F9F4F0895E89409C097FB45
S11313A03EF490958095709561957F4F8F4F9F4F38
S11313B09923A9F0F92F96E9BB279395F69587957C
S11313C077956795B795F111F8CFFAF4BB0F11F43F
S11313D060FF1BC06F5F7F4F8F4F9F4F16C08823E6
S11313E011F096E911C0772321F09EE8872F762F1C
S11313F005C0662371F096E8862F70E060E02AF05D
S11314009A95660F771F881FDAF7880F9695879548
S113141097F9089597F99F6780E870E060E0089570
S11314209FEF80EC089500240A94161617061806F8
S11314300906089500240A941216130614060506D4
S11314400895092E0394000C11F4882352F0BB0F65
S113145040F4BF2B11F460FF04C06F5F7F4F8F4FC8
S11314609F4F089557FD9058440F551F59F05F3F03
S113147071F04795880F97FB991F61F09F3F79F0B2
S113148087950895121613061406551FF2CF469534
S1131490F1DF08C0161617061806991FF1CF8695B6
S11314A07105610508940895E894BB27662777279A
S11314B0CB0197F90895AA1BBB1B51E107C0AA1FD2
S11314C0BB1FA617B70710F0A61BB70B881F991FE1
S11314D05A95A9F780959095BC01CD01089597FB85
S11314E0072E16F4009407D077FD09D00E945B0AFA
S11314F007FC05D03EF4909581959F4F0895709513
S113150061957F4F0895A29FB001B39FC001A39F2F
S1131510700D811D1124911DB29F700D811D112428
S10B1520911D0895F894FFCF1A
S11315287D007D00FA007D007D007D007D00FA00CD
S11315387D007D007D007D00FA007D007D007D003A
S11315487D0077017D007D007D00FA007D007D002F
S11315587D007D00FA007D007D007D007D00FA009D
S11315687D007D007D007D0077017D007D007D008C
S1131578FA007D007D007D007D00FA007D007D007D
S11315887D007D00FA007D007D007D007D007D00EA
S1131598FA007D007D007D00FA007D007D00FA00E0
S11315A87D00FA007D007D007D00FA007D007D004D
S11315B87D007D0077017701FA007D007D007D00C4
S11315C8FA007D007D007D007D00FA007D007D002D
S11315D87D007D0077017D007D007D00FA007D009F
S11315E87D007D007D00FA007D007D007D007D008A
S11315F8FA007D007D007D007D0077017D007D007F
S11316087D00FA007D007D007D007D00FA007D00EC
S11316187D007D007D00FA007D007D007D007D0059
S11316287D00FA007D007D007D00FA007D007D00CC
S1131638FA007D00FA007D007D007D00FA007D003F
S11316487D007D007D0077017701FA007D00770138
S1131658FA007D0077017D007D007D007D007D001E
S11316687D007D007D007701FA007D007701FA0096
S11316787D0077017D007D007D007D007D00F40103
S1131688FA007D007701FA007D0077017D007D0076
S11316987D007D007D007D007D007D007701FA00DE
S11316A87D007701FA007D0077017D007D007D00D3
S11316B87D007D00F4014A018801B801B8010000E9
S11316C8B801EE010B020B0200000B024B02EE0103
S11316D8EE010000B8018801B80100004A01880140
S11316E8B801B8010000B801EE010B020B020000BA
S11316F80B024B02EE01EE010000B8018801B801AB
S113170800004A018801B801B8010000B8010B02C1
S11317184B024B0200004B029302BA02BA020000C9
S113172893024B029302B8010000B801EE010B02C8
S11317380B0200004B029302B8010000B8010B022F
S1131748EE01EE0100000B02B801EE010000B80141
S1131758B801B801EE010B020B0200000B024B02A8
S1131768EE01EE010000B8018801B80100004A0149
S11317788801B801B8010000B801EE010B020B02A0
S113178800000B024B02EE01EE010000B8018801D3
S1131798B80100004A018801B801B8010000B80185
S11317A80B024B024B0200004B029302BA02BA022C
S11317B8000093024B029302B8010000B801EE0145
S11317C80B020B0200004B029302B8010000B8019F
S11317D80B02EE01EE0100000B02B801EE0100005D
S11317E8930200000000BA02000000009302930272
S11317F800001003000093024B02000000004B029B
S1131808000000000B0200000000EE010B020000C3
S1131818EE010000B801930200000000BA020000C3
S113182800009302930200001003000093024B028D
S1131838000000004B02000000000B020000000042
S1111848EE010B020000EE010000B8010200E8
S9030000FC
