:100000000C9434000C949E070C94C2070C9451007D
:100010000C9451000C9451000C9451000C9451001C
:100020000C9451000C9451000C9451000C9451000C
:100030000C9451000C9451000C9451000C945100FC
:100040000C9451000C9451000C9451000C945100EC
:100050000C9451000C9451000C9451000C945100DC
:100060000C9451000C94510011241FBECFEFD8E026
:10007000DEBFCDBF17E0A0E0B1E0ECE7F2E102C0E7
:1000800005900D92AA32B107D9F727E0AAE2B7E0AE
:1000900001C01D92AE32B207E1F70E94CA080C946B
:1000A0003C090C940000FC0184E6689FA001112427
:1000B0009F0136952795ABE7B4E10E942D09BC015D
:1000C00076956795CA010E9405096115710509F4C5
:1000D00028C7E23793E1F90791F48BB182608BB9BD
:1000E00083EE96E20197F1F700C000008BB18D7F9F
:1000F0008BB983EE96E20197F1F700C00000EB3573
:1001000092E1F90791F48BB182608BB985EB94E2AF
:100110000197F1F700C000008BB18D7F8BB985EBA3
:1001200094E20197F1F700C00000E33591E1F9078F
:1001300091F48BB182608BB985EA92E20197F1F775
:1001400000C000008BB18D7F8BB985EA92E20197E8
:10015000F1F700C00000EA3590E1F90791F48BB1A6
:1001600082608BB983EB90E20197F1F700C0000049
:100170008BB18D7F8BB983EB90E20197F1F700C0D3
:100180000000EF369FE0F90791F48BB182608BB9E4
:100190008DED9EE10197F1F700C000008BB18D7FDE
:1001A0008BB98DED9EE10197F1F700C00000E139B8
:1001B0009EE0F90791F48BB182608BB981E29DE1F9
:1001C0000197F1F700C000008BB18D7F8BB981E200
:1001D0009DE10197F1F700C00000E03C9DE0F907C8
:1001E00091F48BB182608BB98FE79BE10197F1F7B6
:1001F00000C000008BB18D7F8BB98FE79BE1019729
:10020000F1F700C00000EA3F9CE0F90791F48BB1E0
:1002100082608BB983EF99E10197F1F700C000008C
:100220008BB18D7F8BB983EF99E10197F1F700C016
:100230000000E0349CE0F90791F48BB182608BB947
:100240008FE798E10197F1F700C000008BB18D7F37
:100250008BB98FE798E10197F1F700C00000E03912
:100260009BE0F90791F48BB182608BB98FE197E144
:100270000197F1F700C000008BB18D7F8BB98FE142
:1002800097E10197F1F700C00000EA3E9AE0F90714
:1002900091F48BB182608BB983ED95E10197F1F711
:1002A00000C000008BB18D7F8BB983ED95E1019784
:1002B000F1F700C00000ED349AE0F90791F48BB13A
:1002C00082608BB989E994E10197F1F700C00000E1
:1002D0008BB18D7F8BB989E994E10197F1F700C06B
:1002E0000000E93B99E0F90791F48BB182608BB98A
:1002F00081E793E10197F1F700C000008BB18D7F9A
:100300008BB981E793E10197F1F700C00000ED326E
:1003100099E0F90791F48BB182608BB989E592E19C
:100320000197F1F700C000008BB18D7F8BB989E593
:1003300092E10197F1F700C00000E93A98E0F9076F
:1003400091F48BB182608BB981E591E10197F1F76E
:1003500000C000008BB18D7F8BB981E591E10197E1
:10036000F1F700C00000ED3298E0F90791F48BB18D
:1003700082608BB989E590E10197F1F700C0000038
:100380008BB18D7F8BB989E590E10197F1F700C0C2
:100390000000E83B97E0F90791F48BB182608BB9DC
:1003A0008FE69FE00197F1F700C000008BB18D7FD1
:1003B0008BB98FE69FE00197F1F700C00000E934A8
:1003C00097E0F90791F48BB182608BB981E99EE0E7
:1003D0000197F1F700C000008BB18D7F8BB981E9E7
:1003E0009EE00197F1F700C00000E03E96E0F907BB
:1003F00091F48BB182608BB98FEB9DE00197F1F79F
:1004000000C000008BB18D7F8BB98FEB9DE0019711
:10041000F1F700C00000ED3796E0F90791F48BB1D9
:1004200082608BB989EF9CE00197F1F700C0000072
:100430008BB18D7F8BB989EF9CE00197F1F700C0FC
:100440000000E03296E0F90791F48BB182608BB93D
:100450008FE39CE00197F1F700C000008BB18D7F26
:100460008BB98FE39CE00197F1F700C00000E83CF6
:1004700095E0F90791F48BB182608BB98FE89BE02E
:100480000197F1F700C000008BB18D7F8BB98FE829
:100490009BE00197F1F700C00000E53795E0F90710
:1004A00091F48BB182608BB989EE9AE00197F1F7F4
:1004B00000C000008BB18D7F8BB989EE9AE0019767
:1004C000F1F700C00000E73295E0F90791F48BB135
:1004D00082608BB98DE49AE00197F1F700C00000CB
:1004E0008BB18D7F8BB98DE49AE00197F1F700C055
:1004F0000000ED3D94E0F90791F48BB182608BB977
:1005000089EB99E00197F1F700C000008BB18D7F76
:100510008BB989EB99E00197F1F700C00000E7394A
:1005200094E0F90791F48BB182608BB98DE299E088
:100530000197F1F700C000008BB18D7F8BB98DE280
:1005400099E00197F1F700C00000E53594E0F90764
:1005500091F48BB182608BB989EA98E00197F1F749
:1005600000C000008BB18D7F8BB989EA98E00197BC
:10057000F1F700C00000E73194E0F90791F48BB186
:1005800082608BB98DE298E00197F1F700C000001E
:100590008BB18D7F8BB98DE298E00197F1F700C0A8
:1005A0000000EC3D93E0F90791F48BB182608BB9C8
:1005B00087EB97E00197F1F700C000008BB18D7FCA
:1005C0008BB987EB97E00197F1F700C00000E43AA0
:1005D00093E0F90791F48BB182608BB987E497E0DF
:1005E0000197F1F700C000008BB18D7F8BB987E4D4
:1005F00097E00197F1F700C00000E03793E0F907BA
:1006000091F48BB182608BB98FED96E00197F1F791
:1006100000C000008BB18D7F8BB98FED96E0019704
:10062000F1F700C00000EF3393E0F90791F48BB1CC
:1006300082608BB98DE796E00197F1F700C000006A
:100640008BB18D7F8BB98DE796E00197F1F700C0F4
:100650000000E03193E0F90791F48BB182608BB92F
:100660008FE196E00197F1F700C000008BB18D7F1C
:100670008BB98FE196E00197F1F700C00000E43EEE
:1006800092E0F90791F48BB182608BB987EC95E029
:100690000197F1F700C000008BB18D7F8BB987EC1B
:1006A00095E00197F1F700C00000EA3B92E0F907FE
:1006B00091F48BB182608BB983E795E00197F1F7F4
:1006C00000C000008BB18D7F8BB983E795E0019767
:1006D000F1F700C00000E33992E0F90791F48BB123
:1006E00082608BB985E295E00197F1F700C00000C8
:1006F0008BB18D7F8BB985E295E00197F1F700C052
:100700000000EE3692E0F90791F48BB182608BB96C
:100710008BED94E00197F1F700C000008BB18D7F65
:100720008BB98BED94E00197F1F700C00000EB343A
:1007300092E0F90791F48BB182608BB985E994E07E
:100740000197F1F700C000008BB18D7F8BB985E96F
:1007500094E00197F1F700C00000EA3292E0F90757
:1007600091F48BB182608BB983E594E00197F1F746
:1007700000C000008BB18D7F8BB983E594E00197B9
:10078000F1F700C00000EB3092E0F90791F48BB173
:1007900082608BB985E194E00197F1F700C0000019
:1007A0008BB18D7F8BB985E194E00197F1F700C0A3
:1007B0000000EE3E91E0F90791F48BB182608BB9B5
:1007C0008BED93E00197F1F700C000008BB18D7FB6
:1007D0008BB98BED93E00197F1F700C00000E23D8B
:1007E00091E0F90791F48BB182608BB983EA93E0D1
:1007F0000197F1F700C000008BB18D7F8BB983EAC0
:1008000093E00197F1F700C00000E83B91E0F907A1
:1008100091F48BB182608BB98FE693E00197F1F789
:1008200000C000008BB18D7F8BB98FE693E00197FC
:10083000F1F700C00000EF3991E0F90791F48BB1B6
:1008400082608BB98DE393E00197F1F700C000005F
:100850008BB18D7F8BB98DE393E00197F1F700C0E9
:100860000000E83891E0F90791F48BB182608BB910
:100870008FE093E00197F1F700C000008BB18D7F0E
:100880008BB98FE093E00197F1F700C00000E237E9
:1008900091E0F90791F48BB182608BB983EE92E01D
:1008A0000197F1F700C000008BB18D7F8BB983EE0B
:1008B00092E00197F1F700C00000ED3591E0F907F3
:1008C00091F48BB182608BB989EB92E00197F1F7DB
:1008D00000C000008BB18D7F8BB989EB92E001974E
:1008E000F1F700C00000EA3491E0F90791F48BB110
:1008F00082608BB983E992E00197F1F700C00000B4
:100900008BB18D7F8BB983E992E00197F1F700C03D
:100910000000E73391E0F90791F48BB182608BB965
:100920008DE692E00197F1F700C000008BB18D7F5A
:100930008BB98DE692E00197F1F700C00000E63236
:1009400091E0F90791F48BB182608BB98BE492E06E
:100950000197F1F700C000008BB18D7F8BB98BE45C
:1009600092E00197F1F700C00000E53191E0F9074E
:1009700091F48BB182608BB989E292E00197F1F733
:1009800000C000008BB18D7F8BB989E292E00197A6
:10099000F1F700C00000E63091E0F90791F48BB167
:1009A00082608BB98BE092E00197F1F700C0000004
:1009B0008BB18D7F8BB98BE092E00197F1F700C08E
:1009C0000000E73FF10591F48BB182608BB98DEEA9
:1009D00091E00197F1F700C000008BB18D7F8BB9DA
:1009E0008DEE91E00197F1F700C00000E93EF105BE
:1009F00091F48BB182608BB981ED91E00197F1F7B1
:100A000000C000008BB18D7F8BB981ED91E0019723
:100A1000F1F700C00000EC3DF10591F48BB182606C
:100A20008BB987EB91E00197F1F700C000008BB123
:100A30008D7F8BB987EB91E00197F1F700C0000043
:100A4000E03DF10591F48BB182608BB98FE991E0C3
:100A50000197F1F700C000008BB18D7F8BB98FE952
:100A600091E00197F1F700C00000E43CF10591F43A
:100A70008BB182608BB987E891E00197F1F700C0F4
:100A800000008BB18D7F8BB987E891E00197F1F77A
:100A900000C00000E93BF10591F48BB182608BB995
:100AA00081E791E00197F1F700C000008BB18D7FE5
:100AB0008BB981E791E00197F1F700C00000EF3AB0
:100AC000F10591F48BB182608BB98DE591E00197CE
:100AD000F1F700C000008BB18D7F8BB98DE591E0FF
:100AE0000197F1F700C00000E53AF10591F48BB1F0
:100AF00082608BB989E491E00197F1F700C00000B2
:100B00008BB18D7F8BB989E491E00197F1F700C03B
:100B10000000EC39F10591F48BB182608BB987E369
:100B200091E00197F1F700C000008BB18D7F8BB988
:100B300087E391E00197F1F700C00000E339F10588
:100B400091F48BB182608BB985E291E00197F1F766
:100B500000C000008BB18D7F8BB985E291E00197D9
:100B6000F1F700C00000EB38F10591F48BB1826021
:100B70008BB985E191E00197F1F700C000008BB1DE
:100B80008D7F8BB985E191E00197F1F700C00000FE
:100B9000E338F10591F48BB182608BB985E091E087
:100BA0000197F1F700C000008BB18D7F8BB985E014
:100BB00091E00197F1F700C00000EB37F10591F4E7
:100BC0008BB182608BB985EF90E00197F1F700C09F
:100BD00000008BB18D7F8BB985EF90E00197F1F725
:100BE00000C00000E537F10591F48BB182608BB94C
:100BF00089EE90E00197F1F700C000008BB18D7F86
:100C00008BB989EE90E00197F1F700C00000EE3655
:100C1000F10591F48BB182608BB98BED90E0019777
:100C2000F1F700C000008BB18D7F8BB98BED90E0A8
:100C30000197F1F700C00000E836F10591F48BB19F
:100C400082608BB98FEC90E00197F1F700C0000053
:100C50008BB18D7F8BB98FEC90E00197F1F700C0DD
:100C60000000E236F10591F48BB182608BB983EC20
:100C700090E00197F1F700C000008BB18D7F8BB938
:100C800083EC90E00197F1F700C00000ED35F1052D
:100C900061F48BB182608BB998EF9A95F1F78BB1C3
:100CA0008D7F8BB988EF8A95F1F7E735F10561F40F
:100CB0008BB182608BB998EE9A95F1F78BB18D7FED
:100CC0008BB988EE8A95F1F7E235F10571F48BB1B5
:100CD00082608BB99AED9A95F1F700C08BB18D7F48
:100CE0008BB98AED8A95F1F700C0EE34F10561F415
:100CF0008BB182608BB990ED9A95F1F78BB18D7FB6
:100D00008BB980ED8A95F1F7E934F10571F48BB177
:100D100082608BB992EC9A95F1F700C08BB18D7F10
:100D20008BB982EC8A95F1F700C0E534F10561F4E6
:100D30008BB182608BB998EB9A95F1F78BB18D7F6F
:100D40008BB988EB8A95F1F7E134F10571F48BB139
:100D500082608BB99DEA9A95F1F700008BB18D7F87
:100D60008BB98DEA8A95F1F70000EE33F10571F445
:100D70008BB182608BB995EA9A95F1F700008BB13F
:100D80008D7F8BB985EA8A95F1F70000EA33F1058A
:100D900071F48BB182608BB99AE99A95F1F700C032
:100DA0008BB18D7F8BB98AE98A95F1F700C0E73363
:100DB000F10571F48BB182608BB992E99A95F1F7E4
:100DC00000C08BB18D7F8BB982E98A95F1F700C0A5
:100DD000E433F10571F48BB182608BB99AE89A958E
:100DE000F1F700C08BB18D7F8BB98AE88A95F1F756
:100DF00000C0E133F10571F48BB182608BB992E8E8
:100E00009A95F1F700C08BB18D7F8BB982E88A95F6
:100E1000F1F700C0EE32F10571F48BB182608BB94D
:100E20009AE79A95F1F700C08BB18D7F8BB98AE76D
:100E30008A95F1F700C0EC32F10571F48BB1826054
:100E40008BB995E79A95F1F700008BB18D7F8BB93F
:100E500085E78A95F1F70000E932F10571F48BB16D
:100E600082608BB99DE69A95F1F700008BB18D7F7A
:100E70008BB98DE68A95F1F70000E732F10561F450
:100E80008BB182608BB998E69A95F1F78BB18D7F23
:100E90008BB988E68A95F1F7E532F10571F48BB1EB
:100EA00082608BB992E69A95F1F700C08BB18D7F85
:100EB0008BB982E68A95F1F700C0E332F10571F44F
:100EC0008BB182608BB99DE59A95F1F700008BB1EB
:100ED0008D7F8BB98DE58A95F1F70000E132F10540
:100EE00061F48BB182608BB998E59A95F1F78BB17B
:100EF0008D7F8BB988E58A95F1F7EF31F10571F4B3
:100F00008BB182608BB992E59A95F1F700C08BB1F5
:100F10008D7F8BB982E58A95F1F700C06150710928
:100F2000D4C8089581E090E090932D0780932C071A
:100F3000089510922D0710922C0708951F920F927A
:100F40000FB60F9211242F933F934F935F936F939C
:100F50007F938F939F93AF93BF93EF93FF930E94E1
:100F60009207FF91EF91BF91AF919F918F917F91E8
:100F70006F915F914F913F912F910F900FBE0F9006
:100F80001F9018951F920F920FB60F9211242F9356
:100F90003F934F935F936F937F938F939F93AF9301
:100FA000BF93EF93FF930E949907FF91EF91BF9139
:100FB000AF919F918F917F916F915F914F913F91F1
:100FC0002F910F900FBE0F901F90189580912A07B8
:100FD00090912B07209128073091290782179307BA
:100FE00034F4019690932B0780932A07089581E0AB
:100FF00090E090932B0780932A07089580912A0709
:1010000090912B078230910534F0019790932B0734
:1010100080932A070895809128079091290790933B
:101020002B0780932A0708959C0121503109892BB1
:1010300041F08FEC97E00197F1F700C00000C90183
:10104000F3CF0895CF93DF93C0E0D0E0CB3CD10540
:101050002CF580912C0790912D07892B19F480E0B5
:1010600090E01CC0CE01880F991FFC01EE56FA4F8C
:1010700020813181FC01E450FC4F80819181211558
:10108000310541F06AE070E00E941909C9010E942F
:10109000530002C00E9414082196D8CFDF91CF914F
:1010A0000895CF93DF93C0E0D0E0CE35D1052CF585
:1010B00080912C0790912D07892B19F480E090E006
:1010C0001CC0CE01880F991FFC01E05CFC4F208101
:1010D0003181FC01EC57FD4F808191812115310553
:1010E00041F06AE070E00E941909C9010E945300B2
:1010F00002C00E9414082196D8CFDF91CF910895A5
:10110000CF93DF93C0E0D0E0CE35D1055CF5809180
:101110002C0790912D07892B19F480E090E022C0D4
:10112000CE01880F991FFC01E05CFC4F20813181CA
:10113000FC01E050FF4F60817181232B71F088EC3E
:1011400090E00E941909FE01EE0FFF1FE656FE4FC8
:10115000808191810E94530003C0CB010E9414083A
:101160002196D2CFDF91CF91089580912A07909157
:101170002B078130910519F40E94220808958230CE
:10118000910519F40E9451080895039711F40E94E3
:101190008008089580EB809366008AB182608AB9E6
:1011A0008BB18C6C8BB9E9E6F0E080818A6080833A
:1011B0008DB383608DBB789481E090E090932B0792
:1011C00080932A0780912C0790912D07019711F4A5
:1011D0000E94B5084E990BC00E94E6072FEF81EEE2
:1011E00094E0215080409040E1F700C000004F990A
:1011F000E9CF0E94FE072FEF81EE94E0215080405E
:101200009040E1F700C00000DDCFAA1BBB1B51E1FD
:1012100007C0AA1FBB1FA617B70710F0A61BB70B66
:10122000881F991F5A95A9F780959095BC01CD010B
:10123000089597FB072E16F4009407D077FD09D088
:101240000E94050907FC05D03EF4909581959F4FBB
:101250000895709561957F4F0895A29FB001B39F47
:10126000C001A39F700D811D1124911DB29F700DAF
:0C127000811D1124911D0895F894FFCFFA
:10127C000800080008000800080008000800080022
:10128C00080008000400040008000800080008001A
:10129C00080008000800080008000800040004000A
:1012AC0008000800080008000800080008000800F2
:1012BC0008000800040002000800020002000400FC
:1012CC0004000800080008000800080008000800D6
:1012DC0008000800080004000400080008000800CA
:1012EC0008000800080008000800080008000400B6
:1012FC0004000800080008000800080008000800A6
:10130C00080008000800040002000601150137015E
:10131C009F019F019F019F019F01370137013701F9
:10132C00370137015D013701880188018801880187
:10133C008801370137013701370137012A020601CD
:10134C005D015D015D015D015D010B020B020B0294
:10135C000B020B02D201D2012A02880188018801FA
:10136C0088013701370137013701370115010601B3
:10137C005D015D015D015D015D010B020B020B0264
:10138C000B020B02D201D2012A0200000601150148
:10139C0037019F019F019F019F019F013701370179
:1013AC003701370137015D01370188018801880158
:1013BC0088018801370137013701370137012A02CB
:1013CC0006015D0188018801880188013701370118
:1013DC00370137013701150106015D015D015D0122
:1013EC005D015D010B020B020B020B020B02D20121
:1013FC00D2012A02F401F401FA00FA00F401F4011A
:10140C00FA00FA00DC05DC05FA00FA00E803E80350
:10141C00FA00FA00F401F401FA00FA00DC05DC052C
:10142C00E803FA00FA00E803E803FA00FA00F40112
:10143C00FA00FA00F401F401E803E803FA00FA00F8
:10144C00E803E803FA00FA00F401F401FA00FA00E8
:10145C00F401F401F401FA00FA00F401F401FA00C9
:10146C00FA00DC05DC05FA00FA00E803E803FA00F0
:10147C00FA00F401F401FA00FA00DC05DC05E803DB
:10148C00FA00FA00E803E803FA00FA00F401FA00A3
:10149C00FA00F401F401E803E803FA00FA00E803A7
:1014AC00E803FA00FA00F401F401FA00FA00F4017E
:1014BC0088014B02EE01B80188014B02D201B80140
:1014CC0088014B02D201B80188014B02EE01B80130
:1014DC000B02100393024B020B02B8019302EE01B4
:1014EC000B02B8019302EE010B024B02E4029302D1
:1014FC004B02700388014B02EE01B80188014B02CC
:10150C00EE01B8010B02100393024B020B0288018F
:10151C004B02EE01B80188014B02D201B8018801DF
:10152C004B02D201B80188014B02EE01B8010B024B
:10153C00100393024B020B02B8019302EE010B0253
:10154C00B8019302EE010B024B02E40293024B0230
:10155C00700388014B02EE01B80188014B02EE01C9
:10156C00B8010B02100393024B020B027D007D00AD
:10157C00FA007D007D007D007D00FA007D007D007D
:10158C007D007D00FA007D007D007D007D007701EF
:10159C007D007D007D00FA007D007D007D007D00DA
:1015AC00FA007D007D007D007D00FA007D007D004D
:1015BC007D007D0077017D007D007D00FA007D00BF
:1015CC007D007D007D00FA007D007D007D007D00AA
:1015DC00FA007D007D007D007D007D00FA007D001D
:1015EC007D007D00FA007D007D00FA007D00FA0090
:1015FC007D007D007D00FA007D007D007D007D007A
:10160C0077017701FA007D007D007D00FA007D00F6
:10161C007D007D007D00FA007D007D007D007D0059
:10162C0077017D007D007D00FA007D007D007D004E
:10163C007D00FA007D007D007D007D00FA007D00BC
:10164C007D007D007D0077017D007D007D00FA002E
:10165C007D007D007D007D00FA007D007D007D0019
:10166C007D00FA007D007D007D007D007D00FA008C
:10167C007D007D007D00FA007D007D00FA007D007C
:10168C00FA007D007D007D00FA007D007D007D006C
:10169C007D0077017701FA007D007701FA007D006B
:1016AC0077017D007D007D007D007D007D007D004B
:1016BC007D007701FA007D007701FA007D0077014B
:1016CC007D007D007D007D007D00F401FA007D0031
:1016DC007701FA007D0077017D007D007D007D00A3
:1016EC007D007D007D007D007701FA007D00770193
:1016FC00FA007D0077017D007D007D007D007D007E
:10170C00F401D20188015D015D0100005D0137012A
:10171C0026012601000026010601370137010000D1
:10172C005D0188015D010000D20188015D015D0150
:10173C0000005D013701260126010000260106018B
:10174C003701370100005D0188015D010000D20105
:10175C0088015D015D0100005D01260106010601A5
:10176C0000000601E900DC00DC000000E9000601D5
:10177C00E9005D0100005D01370126012601000032
:10178C000601E9005D0100005D012601370137010A
:10179C00000026015D01370100005D015D015D0166
:1017AC003701260126010000260106013701370109
:1017BC0000005D0188015D010000D20188015D011E
:1017CC005D0100005D0137012601260100002601A4
:1017DC0006013701370100005D0188015D01000041
:1017EC00D20188015D015D0100005D012601060149
:1017FC00060100000601E900DC00DC000000E90045
:10180C000601E9005D0100005D013701260126019A
:10181C0000000601E9005D0100005D0126013701B1
:10182C003701000026015D0137010000E9000000CE
:10183C000000DC0000000000E900E9000000C4002A
:10184C000000E90006010000000006010000000095
:10185C0026010000000037012601000037010000BE
:10186C005D01E90000000000DC0000000000E90060
:10187C00E9000000C4000000E900060100000000BF
:10188C0006010000000026010000000037012601BF
:0A189C000000370100005D010300A9
:00000001FF
