:020000040000FA
:100000000C9463000C9419070C94F2060C948B006A
:100010000C948B000C948B000C948B000C94F405C6
:100020000C948B000C948B000C948B000C948B0024
:100030000C948B000C948B000C948B000C948B0014
:100040000C94A8060C948B000C9476060C94500625
:100050000C948B000C948B000C948B000C948B00F4
:100060000C948B000C948B000000000024002700EF
:100070002A000000000023002600290000000008DC
:10008000000201000003040700000000000000005F
:10009000010204081020408001020408102001021F
:1000A0000408102000000000250028002B00040494
:1000B0000404040404040202020202020303030310
:1000C00003030200B70811241FBECFEFD8E0DEBF44
:1000D000CDBF15E0A0E0B1E0EEE8F2E102C005908E
:1000E0000D92AA3DB107D9F726E0AAEDB5E001C00F
:1000F0001D92A539B207E1F710E0C3E6D0E004C0D5
:100100002197FE010E943009C236D107C9F70E942B
:1001100040070C9445090C9400008230C8F4E82F85
:10012000F0E0EE0FFF1FE050FF4F718360838130DE
:1001300041F0809169008C7F826080936900E89A29
:10014000089580916900837F886080936900E99AAF
:100150000895AF92BF92CF92DF92EF92FF920F93EA
:100160001F93CF93DF936C017B018B01040F151F4D
:10017000EB015E01AE18BF08C017D10759F06991B5
:10018000D601ED91FC910190F081E02DC601099519
:10019000892B79F7C501DF91CF911F910F91FF90C6
:1001A000EF90DF90CF90BF90AF900895FC01538DFA
:1001B000448D252F30E0842F90E0821B930B541741
:1001C00010F0CF96089501970895FC01918D828DCE
:1001D000981761F0A28DAE0FBF2FB11D5D968C9167
:1001E000928D9F5F9F73928F90E008958FEF9FEFA6
:1001F0000895FC01918D828D981731F0828DE80F62
:10020000F11D858D90E008958FEF9FEF0895FC011B
:10021000918D228D892F90E0805C9F4F821B9109E8
:100220008F739927089588EF95E00E94070121E0D8
:10023000892B09F420E0822F089580E090E0892B3B
:1002400029F00E94130181110C9400000895FC0113
:10025000A48DA80FB92FB11DA35ABF4F2C91848D27
:1002600090E001968F739927848FA689B7892C9384
:10027000A089B1898C91837080648C93938D848DD7
:10028000981306C00288F389E02D80818F7D8083DA
:100290000895EF92FF920F931F93CF93DF93EC019A
:1002A00081E0888F9B8D8C8D98131AC0E889F9891D
:1002B000808185FF15C09FB7F894EE89FF89608320
:1002C000E889F98980818370806480839FBF81E0A1
:1002D00090E0DF91CF911F910F91FF90EF900895E3
:1002E000F62E0B8D10E00F5F1F4F0F731127E02EBE
:1002F0008C8D8E110CC00FB607FCFACFE889F989F6
:10030000808185FFF5CFCE010E942701F1CFEB8DD3
:10031000EC0FFD2FF11DE35AFF4FF0829FB7F894C9
:100320000B8FEA89FB8980818062CFCFCF93DF93E7
:10033000EC01888D8823B9F0AA89BB89E889F989FD
:100340008C9185FD03C0808186FD0DC00FB607FC32
:10035000F7CF8C9185FFF2CF808185FFEDCFCE0165
:100360000E942701E9CFDF91CF910895833081F07A
:1003700028F4813099F08230A9F008958730A9F0EF
:100380008830C9F08430B1F4809180008F7D03C043
:10039000809180008F7780938000089584B58F7757
:1003A00084BD089584B58F7DFBCF8091B0008F7799
:1003B0008093B00008958091B0008F7DF9CFCF93E6
:1003C000DF939091040189130BC0E2ECF0E0E4911B
:1003D0009FEF90930401E13059F138F1E23071F16F
:1003E000282F30E0F901E458FF4F8491F901E057DC
:1003F000FF4FD491F901E255FF4FC491CC2391F006
:1004000081110E94B601EC2FF0E0EE0FFF1FEC55BA
:10041000FF4FA591B4918FB7F894EC91D095DE235E
:10042000DC938FBFDF91CF91089510926E00D8CFEB
:1004300090916F009D7F90936F00D2CF909170004C
:100440009D7F9093700091E09093B0009091B100E7
:10045000987F94609093B1001092B300C1CFCF9376
:10046000DF93282F30E0F901E458FF4F8491F90120
:10047000E057FF4FD491F901E255FF4FC491CC23CF
:10048000A1F081110E94B601EC2FF0E0EE0FFF1FEA
:10049000EE58FF4FA591B491EC91ED2381E090E0EF
:1004A00009F480E0DF91CF91089580E090E0FACFE9
:1004B000CF93DF9390E0FC01E057FF4F24918255EA
:1004C0009F4FFC0184918823D1F090E0880F991F01
:1004D000FC01E859FF4FA591B491FC01EC55FF4F89
:1004E000C591D491623071F49FB7F8943C91822FFA
:1004F000809583238C93E8812E2B28839FBFDF91E7
:10050000CF9108958FB7F894EC912E2B2C938FBF39
:10051000F6CF4F925F926F927F928F929F92AF929F
:10052000BF92CF92DF92EF92FF920F931F93CF93E0
:10053000DF9300D000D01F92CDB7DEB78C012A0127
:100540003B01809104018D30C9F08F3F09F47FC0D9
:100550000F900F900F900F900F90DF91CF911F9100
:100560000F91FF90EF90DF90CF90BF90AF909F9052
:100570008F907F906F905F904F900895E2ECF0E045
:1005800084918D8387FDE4CF61E08DE00E94580265
:100590008D81882321F09D81923009F05CC1480152
:1005A000B12CA12C60E072E18AE790E0A5019801EE
:1005B0000E94060929833A834B835C8369017A018F
:1005C00081E0C81AD108E108F1089FEFC916D104EB
:1005D000E104F10409F00CF413C160E472E48FE06B
:1005E00090E0A50198010E94060969017A0181E065
:1005F000C81AD108E108F1089D81923009F098C02D
:100600008FEFC816D104E104F10409F00CF4DDC148
:1006100060E970ED83E090E0A50198010E94060971
:1006200069017A0191E0C91AD108E108F1088FEF58
:10063000C816D104E104F10411F00CF0A3C183E069
:100640009091B100987F892B8093B100E1C08DE03B
:1006500080930401E2ECF0E094919D839F3F09F4C4
:1006600077CF913029F158F0923009F43FC08D8155
:1006700087FD6ECF61E08DE00E9458028CCF14BCE4
:1006800015BC84B5826084BD85B5816085BDEBEB0A
:10069000F0E0E491F0E0EE0FFF1FEC55FF4F859185
:1006A0009491EDE9F0E0E491E093EB051D826CCFCD
:1006B0001092800010928100809181008860809368
:1006C000810080918100816080938100EBEBF0E0FC
:1006D000E491F0E0EE0FFF1FEC55FF4F85919491F0
:1006E000EDE9F0E0E491E093EA054ECF1092B0001E
:1006F0001092B1008091B00082608093B000809130
:10070000B10081608093B100EBEBF0E0E491F0E0A8
:10071000EE0FFF1FEC55FF4F859194919093E905E3
:100720008093E805EDE9F0E0E491E093E7052CCF54
:100730009FEFC916D104E104F10409F00CF489C05B
:1007400068E478EE81E090E0A50198010E94060936
:1007500069017A0181E0C81AD108E108F1089D8198
:10076000992309F428C19FEFC916D104E104F104CB
:1007700009F00CF41EC162E17AE780E090E0A50187
:1007800094010E94060969017A0181E0C81AD10822
:10079000E108F1089D81992309F4EBC08FEFC81699
:1007A000D104E104F10411F008F0BFC086E048CFA5
:1007B00064E274EF80E090E0A50194010E940609D4
:1007C00069017A0181E0C81AD108E108F10885E0E1
:1007D0009FEFC916D104E104F10409F008F430CF09
:1007E00062E17AE780E090E0A50194010E940609A9
:1007F00069017A0191E0C91AD108E108F108CECF68
:1008000081E09D8191111CCF95B5987F892B85BD85
:100810002FEF3FEFA901411451046104710409F065
:1008200043C09D81913009F45EC0923009F46DC0DF
:1008300091118ECEC7BC2093F4053093F5054093FB
:10084000F6055093F70580916E00826080936E00EC
:100850007FCE82E0D6CFB12CA12C60E072E18AE796
:1008600090E0A50198010E94060969017A0181E0E2
:10087000C81AD108E108F108C114D10491E0E906D1
:10088000F10404F591E08D81813011F680918100B1
:10089000887F892B809381002FEF3FEFA9014114BE
:1008A000510461047104F9F0D801AA0FBB1FA30120
:1008B00092010E94250928EE33E040E050E00E94BA
:1008C000E408AFCF68E478EE81E090E0A5019801FC
:1008D0000E94060969017A0181E0C81AD108E1087D
:1008E000F10893E0D0CFD0928900C0928800209385
:1008F000F0053093F1054093F2055093F305809194
:100900006F00826080936F0023CEC092B30020936B
:10091000EC053093ED054093EE055093EF05809183
:10092000700082608093700013CEC980DA80EB8003
:10093000FC809AE0F594E794D794C7949A95D1F700
:1009400091E0C91AD108E108F10887E079CEC980A1
:10095000DA80EB80FC808AE0F594E794D794C79422
:100960008A95D1F791E0C91AD108E108F10885E02C
:100970004BCF8FEFC816D104E104F10409F038F72A
:1009800084E042CF68E478EE81E090E0A501980130
:100990000E94060969017A0191E0C91AD108E108AB
:1009A000F1088FEFC816D104E104F10411F00CF046
:1009B000FFCE84E045CE8FEFC816D104E104F104E8
:1009C00011F00CF0D8CE83E01FCF82E039CE3FB7D4
:1009D000F8948091DF059091E005A091E105B09138
:1009E000E20526B5A89B05C02F3F19F00196A11D71
:1009F000B11D3FBFBA2FA92F982F8827BC01CD0169
:100A0000620F711D811D911D42E0660F771F881FC7
:100A1000991F4A95D1F708958F929F92AF92BF92F6
:100A2000CF92DF92EF92FF926B017C010E94E7046C
:100A30004B015C01C114D104E104F104B9F00E943E
:100A4000E704681979098A099B09683E73408105A2
:100A5000910580F321E0C21AD108E108F10888EE7F
:100A6000880E83E0981EA11CB11CE4CFFF90EF908C
:100A7000DF90CF90BF90AF909F908F900895089592
:100A8000FC0101900020E9F73197AF01481B590B99
:100A9000BC0188EF95E00C94A900CF93DF930E94EE
:100AA0004005EC0183EC95E00E9440058C0F9D1FF2
:100AB000DF91CF91089586EC95E00E944D0510924C
:100AC000E6051092E50508958AEC95E00E944D0533
:100AD00081E090E09093E6058093E50508958F927C
:100AE0009F92AF92BF92CF92DF92EF92FF920F93BD
:100AF0001F93CF93DF93CDB7DEB7A1970FB6F894CE
:100B0000DEBF0FBECDBF6C01990FEE08FF08F7FEE8
:100B100047C06DE288EF95E00E9449018C012227D1
:100B20003327A9012C193D094E095F0919A2CE01ED
:100B300081967C019AE0892E912CA12CB12CCA01BE
:100B4000B901A50194010E94E408605DF701629378
:100B50007F01211531054105510589F790E080E0BD
:100B6000309719F0CF010E944005080F191F83EC40
:100B700095E00E944005800F911FA1960FB6F89452
:100B8000DEBF0FBECDBFDF91CF911F910F91FF90C0
:100B9000EF90DF90CF90BF90AF909F908F9008958F
:100BA000A701960119A28E010F5D1F4F8AE0C82E82
:100BB000D12CE12CF12CCA01B901A70196010E94A8
:100BC000E408605DF80162938F012115310541054C
:100BD000510589F7309729F0CF010E9440058C011B
:100BE000C6CF10E000E0C3CF1F920F920FB60F9256
:100BF00011242F933F934F935F936F937F938F9322
:100C00009F93AF93BF93EF93FF938091EC059091E7
:100C1000ED05A091EE05B091EF05892B8A2B8B2B6A
:100C2000D1F19091E705E091E805F091E905808127
:100C3000892780838091EC059091ED05A091EE05C8
:100C4000B091EF05181619061A061B069CF4809140
:100C5000EC059091ED05A091EE05B091EF0501979F
:100C6000A109B1098093EC059093ED05A093EE05E1
:100C7000B093EF05FF91EF91BF91AF919F918F914D
:100C80007F916F915F914F913F912F910F900FBE88
:100C90000F901F901895809104010E94DF01EACF08
:100CA0001F920F920FB60F9211242F933F934F93E1
:100CB0005F936F937F938F939F93AF93BF93EF93C4
:100CC000FF9388EF95E00E942701FF91EF91BF917C
:100CD000AF919F918F917F916F915F914F913F91D4
:100CE0002F910F900FBE0F901F9018951F920F928B
:100CF0000FB60F9211242F938F939F93EF93FF932F
:100D0000E0910806F09109068081E0910E06F091CD
:100D10000F0682FD1BC09081809111068F5F8F733B
:100D200020911206821741F0E0911106F0E0E850A0
:100D3000FA4F958F80931106FF91EF919F918F91BC
:100D40002F910F900FBE0F901F9018958081F4CFB8
:100D50001F920F920FB60F9211242F933F938F93F0
:100D60009F93AF93BF938091DB059091DC05A09199
:100D7000DD05B091DE053091DA0523E0230F2D3734
:100D800058F50196A11DB11D2093DA058093DB056E
:100D90009093DC05A093DD05B093DE058091DF051F
:100DA0009091E005A091E105B091E2050196A11DA9
:100DB000B11D8093DF059093E005A093E105B0930A
:100DC000E205BF91AF919F918F913F912F910F902D
:100DD0000FBE0F901F90189526E8230F0296A11DB5
:100DE000B11DD2CF1F920F920FB60F9211242F93E5
:100DF0003F934F935F936F937F938F939F93AF93A3
:100E0000BF93EF93FF93E0910201F09103010995E5
:100E1000FF91EF91BF91AF919F918F917F916F91D2
:100E20005F914F913F912F910F900FBE0F901F90A8
:100E300018951F920F920FB60F9211242F933F9384
:100E40004F935F936F937F938F939F93AF93BF93D2
:100E5000EF93FF93E0910001F09101010995FF915B
:100E6000EF91BF91AF919F918F917F916F915F9122
:100E70004F913F912F910F900FBE0F901F9018959B
:100E8000789484B5826084BD84B5816084BD85B565
:100E9000826085BD85B5816085BD80916E00816071
:100EA00080936E0010928100809181008260809317
:100EB0008100809181008160809381008091800019
:100EC0008160809380008091B10084608093B10044
:100ED0008091B00081608093B00080917A0084603E
:100EE00080937A0080917A00826080937A0080916A
:100EF0007A00816080937A0080917A008068809384
:100F00007A001092C10062E087E00E94580262E01D
:100F100088E00E945802E0910806F091090682E0FC
:100F20008083E0910406F09105061082E0910606A8
:100F3000F09107068FEC808310921006E0910C066A
:100F4000F0910D0686E08083E0910A06F0910B0691
:100F5000808180618083E0910A06F0910B06808198
:100F600088608083E0910A06F0910B06808180689A
:100F70008083E0910A06F0910B0680818F7D80834B
:100F800062E083E00E9458026BE575E081E00E9418
:100F90008D0062E082E00E94580264E675E080E025
:100FA0000E948D0081E090E09093E4058093E3053A
:100FB00030E0232E30E0332E88248394912C52E0AD
:100FC000A52EB12C8091E5059091E6050197A1F53C
:100FD0008091E3059091E4058130910509F07AC094
:100FE0002DEAE22E22E0F22E07E111E0D0E0C0E08F
:100FF0008091E5059091E605892BF1F0CE010E94E4
:101000006F05F701819191917F01F8014190519015
:101010008F01052C000C66087708009709F456C06C
:10102000B301A2010E948902C301B2010E940C0512
:101030002196CB3CD105E1F687E00E942F028C017E
:1010400088E00E942F02EC01012BC9F48FEC95E09F
:101050000E944D058091E3059091E4058230910551
:101060000CF077C001969093E4058093E3050E940D
:101070006F0568EE73E080E090E00E940C05CD2BD8
:10108000C9F484ED95E00E944D058091E3059091AF
:10109000E405823091050CF463C001979093E40558
:1010A0008093E3050E946F0568EE73E080E090E0B6
:1010B0000E940C052114310409F484CF0E9413010D
:1010C000882309F47FCF0E9400007CCF8DE00E942E
:1010D000DF01AACF029709F0AFCF83E4C82E84E0E6
:1010E000D82E97E0E92E95E0F92E0BE414E0D0E03D
:1010F000C0E08091E5059091E605892B09F49CCF2D
:10110000CE010E946F05F701819191917F01F80155
:10111000419051908F01052C000C660877080097CC
:10112000A1F0B301A2010E948902C301B2010E9491
:101130000C05F601819191916F01C817D90719F03B
:101140008DE00E94DF012196D4CF8DE00E94DF0167
:10115000ECCF9092E4058092E30581E090E087CFA8
:10116000B092E405A092E30582E090E09BCFE8EF27
:10117000F5E01382128288EE93E0A0E0B0E0848371
:101180009583A683B78389E091E09183808385EC82
:1011900090E09587848784EC90E09787868780EC41
:1011A00090E0918B808B81EC90E0938B828B82EC32
:1011B00090E0958B848B86EC90E0978B868B118EDC
:1011C000128E138E148E0895A1E21A2EAA1BBB1B39
:1011D000FD010DC0AA1FBB1FEE1FFF1FA217B30703
:1011E000E407F50720F0A21BB30BE40BF50B661F19
:1011F000771F881F991F1A9469F7609570958095DD
:1012000090959B01AC01BD01CF010895052E97FB80
:101210001EF400940E941D0957FD07D00E94E408A7
:1012200007FC03D04EF40C941D0950954095309561
:1012300021953F4F4F4F5F4F089590958095709542
:1012400061957F4F8F4F9F4F08950E943609A59F4C
:10125000900DB49F900DA49F800D911D11240895B1
:10126000EE0FFF1F0590F491E02D0994A29FB001AD
:10127000B39FC001A39F700D811D1124911DB29FCA
:10128000700D811D1124911D0895F894FFCF3F0525
:101290003F05FF000000004901A900D600960107A4
:1012A00001E500F9007D007D00FA007D007D007DF4
:1012B000007D00FA007D007D007D007D00FA007D4C
:1012C000007D007D007D0077017D007D007D00FABE
:1012D000007D007D007D007D00FA007D007D007DA9
:1012E000007D00FA007D007D007D007D0077017D9E
:1012F000007D007D00FA007D007D007D007D00FA0C
:10130000007D007D007D007D00FA007D007D007D78
:10131000007D007D00FA007D007D007D00FA007DEB
:10132000007D00FA007D00FA007D007D007D00FA5E
:10133000007D007D007D007D0077017701FA007D52
:10134000007D007D00FA007D007D007D007D00FABB
:10135000007D007D007D007D0077017D007D007DAA
:1013600000FA007D007D007D007D00FA007D007D9B
:10137000007D007D00FA007D007D007D007D00770E
:10138000017D007D007D00FA007D007D007D007DF7
:1013900000FA007D007D007D007D00FA007D007D6B
:1013A000007D007D007D00FA007D007D007D00FA5B
:1013B000007D007D00FA007D00FA007D007D007D4B
:1013C00000FA007D007D007D007D0077017701FA45
:1013D000007D007701FA007D0077017D007D007DB2
:1013E000007D007D007D007D007D007701FA007D9D
:1013F000007701FA007D0077017D007D007D007D92
:10140000007D00F401FA007D007701FA007D00778D
:10141000017D007D007D007D007D007D007D007DE3
:10142000007701FA007D007701FA007D0077017DE9
:10143000007D007D007D007D00F4014A018801B837
:1014400001B8010000B801EE010B020B0200000B15
:10145000024B02EE01EE010000B8018801B8010064
:10146000004A018801B801B8010000B801EE010B83
:10147000020B0200000B024B02EE01EE010000B86D
:10148000018801B80100004A018801B801B80100D3
:1014900000B8010B024B024B0200004B029302BA50
:1014A00002BA02000093024B029302B8010000B896
:1014B00001EE010B020B0200004B029302B8010087
:1014C00000B8010B02EE01EE0100000B02B801EEC4
:1014D000010000B801B801B801EE010B020B0200D7
:1014E000000B024B02EE01EE010000B8018801B8CA
:1014F0000100004A018801B801B8010000B801EEFE
:10150000010B020B0200000B024B02EE01EE010088
:1015100000B8018801B80100004A018801B801B88B
:10152000010000B8010B024B024B0200004B02937A
:1015300002BA02BA02000093024B029302B8010001
:1015400000B801EE010B020B0200004B029302B83F
:10155000010000B8010B02EE01EE0100000B02B821
:1015600001EE010000930200000000BA020000003A
:10157000009302930200001003000093024B02004C
:101580000000004B02000000000B0200000000EE13
:10159000010B020000EE010000B801930200000000
:1015A00000BA020000000093029302000010030042
:1015B0000093024B02000000004B02000000000BF1
:1015C0000200000000EE010B020000EE010000B876
:1015D0000109000A000B000D00F401F401FA00FA01
:1015E00000F401F401FA00FA00DC05DC05FA00FA67
:1015F00000E803E803FA00FA00F401F401FA00FA43
:1016000000DC05DC05E803FA00FA00E803E803FA69
:1016100000FA00F401FA00FA00F401F401E803E82A
:1016200003FA00FA00E803E803FA00FA00F401F410
:1016300001FA00FA00F401F401F401FA00FA00F4EE
:1016400001F401FA00FA00DC05DC05FA00FA00E812
:1016500003E803FA00FA00F401F401FA00FA00DCEE
:1016600005DC05E803FA00FA00E803E803FA00FAEB
:1016700000F401FA00FA00F401F401E803E803FAC7
:1016800000FA00E803E803FA00FA00F401F401FAB2
:1016900000FA00F4018801060137015D01880106A6
:1016A000014A015D01880106014A015D01880106C8
:1016B0000137015D012601C400E900060126015D34
:1016C00001E900370126015D01E900370126010625
:1016D00001D000E9000601AF008801060137015D75
:1016E000018801060137015D012601C400E90006F9
:1016F0000126018801060137015D01880106014AC2
:10170000015D01880106014A015D0188010601377A
:10171000015D012601C400E900060126015D01E921
:1017200000370126015D01E900370126010601D0DD
:1017300000E9000601AF008801060137015D01885C
:1017400001060137015D012601C400E900060126FA
:10175000010D0A0073746F00706C6179006E65781A
:0817600074006261636B00007C
:107E0000112484B714BE81FFF0D085E080938100F7
:107E100082E08093C00088E18093C10086E0809377
:107E2000C20080E18093C4008EE0C9D0259A86E02C
:107E300020E33CEF91E0309385002093840096BBD3
:107E4000B09BFECF1D9AA8958150A9F7CC24DD24C4
:107E500088248394B5E0AB2EA1E19A2EF3E0BF2EE7
:107E6000A2D0813461F49FD0082FAFD0023811F036
:107E7000013811F484E001C083E08DD089C08234E0
:107E800011F484E103C0853419F485E0A6D080C0E4
:107E9000853579F488D0E82EFF2485D0082F10E0AE
:107EA000102F00270E291F29000F111F8ED06801E7
:107EB0006FC0863521F484E090D080E0DECF843638
:107EC00009F040C070D06FD0082F6DD080E0C81688
:107ED00080E7D80618F4F601B7BEE895C0E0D1E017
:107EE00062D089930C17E1F7F0E0CF16F0E7DF06D8
:107EF00018F0F601B7BEE89568D007B600FCFDCFD4
:107F0000A601A0E0B1E02C9130E011968C91119780
:107F100090E0982F8827822B932B1296FA010C0160
:107F200087BEE89511244E5F5F4FF1E0A038BF0790
:107F300051F7F601A7BEE89507B600FCFDCF97BE46
:107F4000E89526C08437B1F42ED02DD0F82E2BD052
:107F50003CD0F601EF2C8F010F5F1F4F84911BD097
:107F6000EA94F801C1F70894C11CD11CFA94CF0C13
:107F7000D11C0EC0853739F428D08EE10CD085E9AC
:107F80000AD08FE07ACF813511F488E018D01DD067
:107F900080E101D065CF982F8091C00085FFFCCF94
:107FA0009093C60008958091C00087FFFCCF809118
:107FB000C00084FD01C0A8958091C6000895E0E648
:107FC000F0E098E1908380830895EDDF803219F02E
:107FD00088E0F5DFFFCF84E1DECF1F93182FE3DFCA
:107FE0001150E9F7F2DF1F91089580E0E8DFEE27F6
:047FF000FF270994CA
:027FFE00040479
:00000001FF
