:100000000C9434000C9451000C9451000C94510049
:100010000C9451000C9451000C9451000C9451001C
:100020000C9451000C9451000C9451000C9451000C
:100030000C9451000C9451000C9451000C945100FC
:100040000C9451000C9451000C9451000C945100EC
:100050000C9451000C9451000C9451000C945100DC
:100060000C9451000C94510011241FBECFEFD8E026
:10007000DEBFCDBF12E0A0E0B1E0E0E0F8E102C0F9
:1000800005900D92AE32B107D9F722E0AEE2B2E0B0
:1000900001C01D92A23AB207E1F70E9466020C94D9
:1000A000FE0B0C94000014B80895189B07C081E063
:1000B00090E090936902809368021AC0199B07C070
:1000C00082E090E0909369028093680211C01A9BCD
:1000D00007C083E090E0909369028093680208C0B3
:1000E0001B9B0BC084E090E09093690280936802B0
:1000F0008091680290916902089580E090E00895EF
:100100009BB19F70282F207F922B9BB99BB19E7F24
:100110009BB99BB192609BB932E03A95F1F700C070
:100120009BB19D7F9BB9EFE8F1E03197F1F700C0FB
:1001300000002BB1F0E18F9FC0011124922F9F701E
:10014000892B8BB98BB182608BB932E03A95F1F78C
:1001500000C08BB18D7F8BB98FE99FE00197F1F7DC
:1001600000C0000008959BB19F70282F207F922B24
:100170009BB99BB191609BB99BB192609BB932E0F6
:100180003A95F1F700C09BB19D7F9BB9EFE8F1E094
:100190003197F1F700C000002BB1F0E18F9FC00153
:1001A0001124922F9F70892B8BB98BB182608BB9F0
:1001B00032E03A95F1F700C08BB18D7F8BB98FE9B2
:1001C0009FE00197F1F700C0000008958FEF8AB912
:1001D0008FE39CE90197F1F700C0000082E00E94E4
:1001E000800088E20E9480008CE00E94800086E00F
:1001F0000E94800081E00E9480008FE99FE00197CB
:10020000F1F700C0000008950F931F93CF93DF9381
:100210008C01C0E0D0E003C00E94B3002196F80139
:10022000EC0FFD1F80818111F7CFDF91CF911F91DE
:100230000F910895CF93DF93EA01811108C06031D7
:1002400030F4862F8F7080680E94800009C0813052
:1002500039F4603128F4862F8F70806C0E94800002
:10026000CE010E940401DF91CF91089581E00E94A8
:1002700080008FE99FE00197F1F700C0000080E85F
:100280000E9480000895EF92FF920F931F93CF93E7
:10029000DF93FC01EA010130110541F5211531051B
:1002A00051F480819181019668E170E00E94EC0830
:1002B000918380834CC02130310559F4FB0180814A
:1002C000918101966CE370E00E94EC089183808339
:1002D0003EC022303105D9F58881998101966CE3C1
:1002E00070E00E94EC089983888331C00F3F1F4F54
:1002F00071F52115310561F4808191810197918318
:100300008083019621F587E190E0918380831FC06F
:100310002130310571F4FB01808191810197918336
:1003200080830196A1F48BE390E0FB0191838083AD
:100330000EC02230310559F4888199810197998343
:100340008883019621F48BE390E099838883DF9181
:10035000CF911F910F91FF90EF9008950F931F93EE
:10036000CF93DF93EC01FB018A01DA018D919C911F
:10037000119701968D939C932CE330E0B9010E9474
:10038000EC0880819181680F791F71836083D801A7
:100390008D919C91B9010E94EC08D8018D939C939A
:1003A00080819181B9010E94EC0888819981680F50
:1003B000791F7983688380819181B9010E94EC085B
:1003C000918380838881998168E170E00E94EC08C4
:1003D00099838883DF91CF911F910F910895CF93D7
:1003E000DF93CBE4D2E089858F9388858F938F81CB
:1003F0008F938E818F938B818F938A818F93898145
:100400008F9388818F9387E091E09F938F9383E709
:1004100092E09F938F930E9414098D898F938C890A
:100420008F938B898F938A898F938F858F938E85F6
:100430008F938D858F938C858F9381E291E09F932D
:100440008F9384E892E09F938F930E94140943E76F
:1004500052E060E080E00E941A0144E852E060E06F
:1004600081E00E941A018DB79EB748960FB6F894A6
:100470009EBF0FBE8DBFC0E0D0E022C0FE01E85C91
:10048000FD4F808181111BC0BE01617070787723A0
:1004900034F4615071096E6F7F6F6F5F7F4FCE01D3
:1004A000DD230CF4019695958795962F990F990F5A
:1004B000990F690F6E5F4BE351E00E941A0121967C
:1004C000C430D105DCF2DF91CF9108950E94E6009F
:1004D0000E9453000E945500909369028093680225
:1004E00080910601882341F045E452E067E472E020
:1004F00089E492E00E94AE01809130029091310235
:100500008230910509F46EC134F4009761F00197CF
:1005100009F457C057C68330910509F4D4C4049731
:1005200009F4BAC54FC680910601811104C08091BB
:100530003E028823B1F10E943601809146028F93DA
:10054000809145028F93809148028F93809147025A
:100550008F9380914A028F93809149028F9381E417
:1005600091E09F938F938AE692E09F938F930E94EE
:10057000140940E551E062E080E00E941A014AE679
:1005800052E064E081E00E941A011092060110928C
:100590003E028DB79EB70A960FB6F8949EBF0FBE67
:1005A0008DBF8091680290916902029709F00AC696
:1005B00081E090E0909331028093300280933E027C
:1005C00001C68091320290913302009721F0019789
:1005D00009F449C0F7C580913E02882381F00E944A
:1005E000360144ED51E064E080E00E941A014DE5DF
:1005F00051E060E081E00E941A0110923E02809179
:1006000068029091690281309105A9F481E090E03F
:1006100090933302809332020E94360149E651E002
:1006200064E080E00E941A014AE652E064E081E062
:100630000E941A01C7C58230910551F482E090E012
:10064000909331028093300281E080933E02BAC5DC
:10065000039709F0B7C5109231021092300281E081
:1006600080933E02AFC5809168029091690281300B
:100670009105B1F480913602909137028230910554
:1006800049F4109233021092320210923702109203
:1006900036027FC00196909337028093360279C06C
:1006A0008230910599F520913602309137020FEF93
:1006B0001FEF45E452E067E472E089E492E00E94B3
:1006C0004301809146028F93809145028F938091E0
:1006D00048028F93809147028F9380914A028F93B3
:1006E000809149028F9381E491E09F938F938AE6F2
:1006F00092E09F938F930E9414098DB79EB70A963C
:100700000FB6F8949EBF0FBE8DBF43C083309105D6
:1007100099F5209136023091370201E010E045E46E
:1007200052E067E472E089E492E00E944301809124
:1007300046028F93809145028F93809148028F9358
:10074000809147028F9380914A028F938091490252
:100750008F9381E491E09F938F938AE692E09F9339
:100760008F930E9414098DB79EB70A960FB6F8941E
:100770009EBF0FBE8DBF0DC0049759F41092330277
:1007800010923202109237021092360281E080936A
:100790003E0280913602682F660F680F6C5F42E759
:1007A00051E081E00E941A01809136029091370257
:1007B0009C01220F331F280F391FF901E659FD4F05
:1007C0009081E5E6F2E09083D901A559BD4F9C9157
:1007D0009183682F660F680F6C5FAF0181E00E9404
:1007E0001A01F0C48091320290913302009721F0F7
:1007F000019709F441C0E6C480913E02882381F04C
:100800000E94360144ED51E064E080E00E941A014C
:1008100045E751E060E081E00E941A0110923E023B
:1008200080916802909169028130910561F481E0C4
:1008300090E090933302809332020E94360181E06F
:1008400080933E02BFC48230910551F483E090E072
:10085000909331028093300281E080933E02B2C4D3
:10086000039709F0AFC481E090E090933102809348
:10087000300280933E02A6C48091340290913502EA
:100880008130910509F4BFC01CF4892B49F09AC44A
:100890008230910509F4CBC0039709F47AC192C460
:1008A00080913E028823A1F046E851E060E080E0BC
:1008B0000E941A0143E951E060E081E00E941A01C0
:1008C00042E051E06DE081E00E941A0110923E0288
:1008D00080916802909169028130910531F5809193
:1008E0000001909101018130910539F481E090E09F
:1008F000909335028093340212C08230910539F40E
:1009000082E090E0909335028093340208C0039710
:1009100031F483E090E090933502809334020E949A
:10092000360181E080933E024DC48230910579F515
:1009300080910001909101010197909301018093B2
:1009400000011816190634F081E090E0909301013F
:1009500080930001809101018F93809100018F931A
:1009600081EA91E09F938F9382E091E09F938F9330
:100970000E94140942E051E06DE081E00E941A01FA
:100980000F900F900F900F900F900F901BC483301B
:10099000910571F58091000190910101019690936C
:1009A000010180930001049734F083E090E090937C
:1009B000010180930001809101018F9380910001DA
:1009C0008F9381EA91E09F938F9382E091E09F93D0
:1009D0008F930E94140942E051E06DE081E00E9493
:1009E0001A010F900F900F900F900F900F90EAC385
:1009F000049709F0E7C381E080933E02109233022E
:100A000010923202DFC380913E02882321F00E94BF
:100A1000EF0110923E028091680290916902049762
:100A200009F0D0C31092350210923402CBC38091EA
:100A30003E02882351F00E94360144EA51E060E012
:100A400080E00E941A0110923E028091680290910B
:100A500069028130910559F5209104013091050119
:100A600033232CF1F901E85CFD4F10828FEF9FEFEB
:100A700090930501809304010E94360141EB51E0FF
:100A800060E080E00E941A019FEF20E782E0915031
:100A900020408040E1F700C0000010923502109223
:100AA000340281E080933E020E9436018BC3823083
:100AB000910569F58091040190910501019790934A
:100AC000050180930401992324F4109205011092EA
:100AD0000401809104019091050101969F938F93E9
:100AE00081EA91E09F938F9382E091E09F938F93AF
:100AF0000E94140942E051E06CE080E00E941A017B
:100B00000F900F900F900F900F900F905BC383305A
:100B1000910579F5809104019091050101969093DA
:100B2000050180930401049734F083E090E09093F2
:100B300005018093040180910401909105010196C3
:100B40009F938F9381EA91E09F938F9382E091E04E
:100B50009F938F930E94140942E051E06CE080E083
:100B60000E941A010F900F900F900F900F900F900E
:100B700029C3049709F026C30E94360181E08093BF
:100B80003E02109235021092340281E380930201FA
:100B900019C380913E02882371F00E94360144EA15
:100BA00051E060E080E00E941A0110923E02109233
:100BB00005011092040180916802909169028130D0
:100BC000910509F088C080913C02882309F45BC03C
:100BD00080913602909137028130910509F04DC025
:100BE0008091040190910501FC01E85CFD4FC1E09A
:100BF000C083FC01EE0FFF1FDF01A80FB91FAA0F72
:100C0000BB1FA55BBD4F209143023091440211965A
:100C10003C932E93FD018091410290914202938377
:100C2000828310923C020E9436014FEB51E060E05B
:100C300080E00E941A019FEF20E782E0915020405F
:100C40008040E1F700C00000C0933E020E943601E0
:100C50001092370210923602109244021092430210
:100C600010924202109241021092400210923F02F2
:100C70001092350210923402FDC001969093370213
:100C800080933602F7C081E080933C02809142025B
:100C90008F93809141028F93809144028F93809132
:100CA00043028F9386E491E09F938F9385E992E0CE
:100CB0009F938F930E94140945E952E064E081E01C
:100CC0000E941A018DB79EB708960FB6F8949EBF82
:100CD0000FBE8DBFCFC08230910509F05EC08091FC
:100CE0003C02882369F120913602309137020FEFE0
:100CF0001FEF4FE352E061E472E083E492E00E9470
:100D00004301809142028F93809141028F938091A1
:100D100044028F93809143028F9386E491E09F93E6
:100D20008F9385E992E09F938F930E9414098DB76A
:100D30009EB708960FB6F8949EBF0FBE8DBF9AC09F
:100D40008091040190910501019790930501809392
:100D50000401992324F4109205011092040180915A
:100D600004019091050101969F938F9381EA91E090
:100D70009F938F9383E692E09F938F930E94140931
:100D800043E652E06CE080E00E941A010F900F9061
:100D90000F900F900F900F906DC08330910509F068
:100DA0005CC080913C02882369F120913602309129
:100DB000370201E010E04FE352E061E472E083E4C7
:100DC00092E00E944301809142028F938091410200
:100DD0008F93809144028F93809143028F9386E496
:100DE00091E09F938F9385E992E09F938F930E9468
:100DF00014098DB79EB708960FB6F8949EBF0FBE24
:100E00008DBF38C0809104019091050101968370D7
:100E10009078992324F401978C6F9F6F019690939B
:100E200005018093040101969F938F9381EA91E0DD
:100E30009F938F9383E692E09F938F930E94140970
:100E400043E652E06CE080E00E941A010F900F90A0
:100E50000F900F900F900F900DC0049759F41092BF
:100E6000350210923402109237021092360281E05D
:100E700080933E0280913602682F660F680F6C5F88
:100E800042E751E081E00E941A0180913602909180
:100E900037029C01220F331F280F391FF901EB562F
:100EA000FD4F9081E5E6F2E09083D901AA56BD4F4F
:100EB0009C919183682F660F680F6C5FAF0181E092
:100EC0000E941A017FC180913202909133020097F3
:100ED00021F0019709F462C075C180913E02882318
:100EE00081F00E94360144ED51E064E080E00E9410
:100EF0001A014DEC51E060E081E00E941A0110926D
:100F00003E0280916802909169028130910561F5FD
:100F100081E090E090933302809332020E94360188
:100F20004DED51E060E080E00E941A0180912E02B8
:100F300090912F0201969F938F9381EA91E09F9366
:100F40008F9380EA92E09F938F930E94140940EA66
:100F500052E060E081E00E941A010F900F900F9024
:100F60000F900F900F902EC18230910551F484E0C4
:100F700090E0909331028093300281E080933E02B2
:100F800021C1039709F01EC182E090E090933102E5
:100F90008093300281E080933E0214C18091680208
:100FA0009091690281309105C9F40E94360149EEA1
:100FB00051E061E080E00E941A019FEF20E782E0AB
:100FC000915020408040E1F700C0000081E0809314
:100FD0003E021092330210923202F4C08230910528
:100FE00069F580912E0290912F02019790932F0224
:100FF00080932E02019621F410922F0210922E025D
:1010000080912E0290912F0201969F938F9381EAF7
:1010100091E09F938F9380EA92E09F938F930E9439
:10102000140940EA52E060E081E00E941A010F904A
:101030000F900F900F900F900F90C4C0039709F07E
:10104000C1C080912E0290912F02019681709078FC
:10105000992324F401978E6F9F6F019690932F022E
:1010600080932E0201969F938F9381EA91E09F9344
:101070008F9380EA92E09F938F930E94140940EA35
:1010800052E060E081E00E941A010F900F900F90F3
:101090000F900F900F9096C0809132029091330282
:1010A000009719F00197C1F18DC080913E0288230D
:1010B00081F00E94360144ED51E064E080E00E943E
:1010C0001A0146EF51E060E081E00E941A0110929F
:1010D0003E0280916802909169028130910579F415
:1010E00081E090E090933302809332020E943601B7
:1010F00046E052E060E080E00E941A0163C003977E
:1011000009F060C083E090E0909331028093300258
:1011100081E080933E0256C08091680290916902FE
:1011200081309105C1F580913D028823C9F00E946C
:1011300036014FE052E060E080E00E941A018FEF3C
:1011400090E722E0815090402040E1F700C000008D
:1011500081E080933E02109233021092320232C03C
:10116000811130C00E94360140E252E060E080E030
:101170000E941A018FEF90E722E0815090402040BA
:10118000E1F700C0000081E080933E02109233023C
:101190001092320217C08230910551F44AE252E0B7
:1011A00060E081E00E941A0181E080933D020AC064
:1011B000039741F44CE252E060E081E00E941A01A2
:1011C00010923D028FEF91EE24E08150904020403C
:1011D000E1F700C000007EC997FB072E16F40094CB
:1011E00007D077FD09D00E94000907FC05D03EF426
:1011F000909581959F4F0895709561957F4F0895C3
:10120000AA1BBB1B51E107C0AA1FBB1FA617B7072C
:1012100010F0A61BB70B881F991F5A95A9F7809548
:101220009095BC01CD010895AEE0B0E0EAE1F9E0AF
:101230000C94D50B0D891E8986E08C831A83098353
:101240008FEF9FE79E838D83AE01475E5F4F6F896F
:10125000788DCE0101960E943609EF81F885E00F66
:10126000F11F10822E96E4E00C94F10BABE0B0E09D
:10127000ECE3F9E00C94C70B6C017B018A01FC01E3
:1012800017821682838181FFCCC1CE0101963C0179
:10129000F6019381F70193FD859193FF81917F0181
:1012A000882309F4BAC1853239F493FD859193FFFF
:1012B00081917F01853229F4B60190E00E942D0BC7
:1012C000E7CF912C212C312CFFE1F315D8F08B3294
:1012D00079F038F4803279F08332A1F4232D206143
:1012E0001DC08D3261F0803369F4232D216016C05A
:1012F000832D8260382EE32DE4603E2E2AC0F32D2C
:10130000F8601DC037FC2DC020ED280F2A3040F0BA
:101310008E32B9F436FC81C1232D2064322E19C0DF
:1013200036FE06C08AE0989E200D1124922E11C030
:10133000EAE02E9E200D1124222EF32DF0623F2E86
:1013400008C08C3621F4832D8068382E02C0883680
:1013500041F4F70193FD859193FF81917F01811104
:10136000B3CF982F9F7D9554933028F40C5F1F4F77
:101370009FE399830DC0833631F0833771F0833555
:1013800009F059C021C0F801808189830E5F1F4F89
:1013900088248394912C530113C02801F2E04F0E4E
:1013A000511CF801A080B18036FE03C0692D70E0A9
:1013B00002C06FEF7FEFC5010E94220B4C0182013A
:1013C000F32DFF773F2E16C0280122E0420E511C5C
:1013D000F801A080B18036FE03C0692D70E002C024
:1013E0006FEF7FEFC5010E94170B4C01F32DF068E2
:1013F0003F2E820133FC1BC0822D90E08816990697
:10140000B0F4B60180E290E00E942D0B2A94F4CF54
:10141000F50137FC859137FE81915F01B60190E0BF
:101420000E942D0B21102A9421E0821A9108811428
:10143000910471F7E8C0843611F0893641F5F8015E
:1014400037FE07C060817181828193810C5F1F4FDD
:1014500008C060817181072E000C880B990B0E5F0C
:101460001F4FF32DFF763F2E97FF09C09095809573
:10147000709561957F4F8F4F9F4FF0683F2E2AE008
:1014800030E0A3010E94690B882E861845C085377D
:1014900031F4232D2F7EB22E2AE030E025C0932D8B
:1014A000997FB92E8F36C1F018F4883579F0B5C020
:1014B000803719F0883721F0B0C0E92FE061BE2EE7
:1014C000B4FE0DC0FB2DF460BF2E09C034FE0AC06F
:1014D000292F2660B22E06C028E030E005C020E1AA
:1014E00030E002C020E132E0F801B7FE07C06081C1
:1014F0007181828193810C5F1F4F06C06081718171
:1015000080E090E00E5F1F4FA3010E94690B882EC0
:101510008618FB2DFF773F2E36FE0DC0232D2E7F24
:10152000A22E891458F434FE0BC032FC09C0832D5E
:101530008E7EA82E05C0B82CA32C03C0B82C01C0E9
:10154000B92CA4FE0FC0FE01E80DF11D808180338F
:1015500021F49A2D997EA92E09C0A2FE06C0B3944B
:10156000B39404C08A2D867809F0B394A3FC11C00B
:10157000A0FE06C0B21488F4280C922C9B180EC052
:10158000B21460F4B60180E290E00E942D0BB39497
:10159000F7CFB21418F42B1802C0982C212CA4FEFB
:1015A00010C0B60180E390E00E942D0BA2FE17C090
:1015B000A1FC03C088E790E002C088E590E0B60196
:1015C0000CC08A2D867859F0A1FE02C08BE201C0C2
:1015D00080E2A7FC8DE2B60190E00E942D0B8914F9
:1015E00038F4B60180E390E00E942D0B9A94F7CF77
:1015F0008A94F301E80DF11D8081B60190E00E940C
:101600002D0B8110F5CF222009F442CEB60180E2E5
:1016100090E00E942D0B2A94F6CFF60186819781E7
:1016200002C08FEF9FEF2B96E2E10C94E30BFC01DD
:101630000590615070400110D8F7809590958E0FFD
:101640009F1F0895FC016150704001900110D8F770
:10165000809590958E0F9F1F08950F931F93CF93A2
:10166000DF93FB01238121FD03C08FEF9FEF2CC08F
:1016700022FF16C0468157812481358142175307C6
:1016800044F4A081B1819D012F5F3F4F31832083BE
:101690008C93268137812F5F3F4F3783268314C079
:1016A0008B01EC01FB010084F185E02D0995892B6C
:1016B000E1F6D80116968D919C9117970196179691
:1016C0009C938E931697CE01DF91CF911F910F912E
:1016D0000895FA01AA27283051F1203181F1E894C8
:1016E0006F936E7F6E5F7F4F8F4F9F4FAF4FB1E015
:1016F0003ED0B4E03CD0670F781F891F9A1FA11D10
:10170000680F791F8A1F911DA11D6A0F711D811D10
:10171000911DA11D20D009F468943F912AE0269FD5
:1017200011243019305D3193DEF6CF010895462F34
:101730004770405D4193B3E00FD0C9F7F6CF462F15
:101740004F70405D4A3318F0495D31FD405241937E
:1017500002D0A9F7EACFB4E0A6959795879577953B
:101760006795BA95C9F700976105710508959B01C2
:10177000AC010A2E06945795479537952795BA954B
:10178000C9F7620F731F841F951FA01D08952F9224
:101790003F924F925F926F927F928F929F92AF9201
:1017A000BF92CF92DF92EF92FF920F931F93CF934E
:1017B000DF93CDB7DEB7CA1BDB0B0FB6F894DEBFE5
:1017C0000FBECDBF09942A88398848885F846E840B
:1017D0007D848C849B84AA84B984C884DF80EE8055
:1017E000FD800C811B81AA81B981CE0FD11D0FB65E
:1017F000F894DEBF0FBECDBFED010895F894FFCF82
:1018000001003100FFFF013129253032643A2530D3
:10181000326420203229253032643A253032642067
:10182000003329253032643A2530326420203429AF
:10183000253032643A253032642000204F4646205D
:1018400000253032643A253032643A253032640063
:1018500043555252454E542054494D4500312E4572
:101860004449542054494D450048483A4D4D3A5357
:1018700053005F5F00322E414C41524D205345547E
:1018800054494E475300313A5649455720323A435E
:101890004C5200332E43484E4720454E5445523A51
:1018A00000256400454E54455220414C41524D3A6A
:1018B00000414C41524D20434C454152454400416A
:1018C0004C41524D204348414E47454400332E542D
:1018D0004F4E452053455454494E475300454E54AE
:1018E000455220544F4E453A00544F4E45204348F0
:1018F000414E47454400342E464143544F525920EF
:10190000524553455400434F4E4649524D3A0052BA
:1019100045534554205355434345535346554C0076
:0E19200043414E43454C4C45440059004E0097
:00000001FF
